{
  "abi": [
    {
      "inputs": [
        {
          "internalType": "contract ISuperfluid",
          "name": "host",
          "type": "address"
        }
      ],
      "stateMutability": "nonpayable",
      "type": "constructor"
    },
    {
      "anonymous": false,
      "inputs": [
        {
          "indexed": false,
          "internalType": "address",
          "name": "from",
          "type": "address"
        },
        {
          "indexed": false,
          "internalType": "address",
          "name": "to",
          "type": "address"
        },
        {
          "indexed": false,
          "internalType": "uint256",
          "name": "amountFrom",
          "type": "uint256"
        },
        {
          "indexed": false,
          "internalType": "uint256",
          "name": "amountTo",
          "type": "uint256"
        },
        {
          "indexed": false,
          "internalType": "address",
          "name": "tokenfromout",
          "type": "address"
        },
        {
          "indexed": false,
          "internalType": "address",
          "name": "tokentoout",
          "type": "address"
        },
        {
          "indexed": false,
          "internalType": "int96",
          "name": "flowRate",
          "type": "int96"
        },
        {
          "indexed": false,
          "internalType": "int96",
          "name": "flowRateto",
          "type": "int96"
        }
      ],
      "name": "acceptNewRequest",
      "type": "event"
    },
    {
      "anonymous": false,
      "inputs": [
        {
          "indexed": false,
          "internalType": "address",
          "name": "from",
          "type": "address"
        },
        {
          "indexed": false,
          "internalType": "address",
          "name": "to",
          "type": "address"
        },
        {
          "indexed": false,
          "internalType": "uint256",
          "name": "amountFrom",
          "type": "uint256"
        },
        {
          "indexed": false,
          "internalType": "uint256",
          "name": "amountTo",
          "type": "uint256"
        },
        {
          "indexed": false,
          "internalType": "address",
          "name": "tokenfromout",
          "type": "address"
        },
        {
          "indexed": false,
          "internalType": "address",
          "name": "tokentoout",
          "type": "address"
        },
        {
          "indexed": false,
          "internalType": "int96",
          "name": "flowRatefrom",
          "type": "int96"
        },
        {
          "indexed": false,
          "internalType": "int96",
          "name": "flowRateto",
          "type": "int96"
        }
      ],
      "name": "createdNewRequest",
      "type": "event"
    },
    {
      "inputs": [],
      "name": "CFA_ID",
      "outputs": [
        {
          "internalType": "bytes32",
          "name": "",
          "type": "bytes32"
        }
      ],
      "stateMutability": "view",
      "type": "function"
    },
    {
      "inputs": [
        {
          "internalType": "uint256",
          "name": "",
          "type": "uint256"
        }
      ],
      "name": "IdtoAgreements",
      "outputs": [
        {
          "internalType": "address",
          "name": "from",
          "type": "address"
        },
        {
          "internalType": "address",
          "name": "to",
          "type": "address"
        },
        {
          "internalType": "uint256",
          "name": "amountFrom",
          "type": "uint256"
        },
        {
          "internalType": "uint256",
          "name": "amountTo",
          "type": "uint256"
        },
        {
          "internalType": "address",
          "name": "tokenfromout",
          "type": "address"
        },
        {
          "internalType": "address",
          "name": "tokentoout",
          "type": "address"
        },
        {
          "internalType": "int96",
          "name": "flowRatefrom",
          "type": "int96"
        },
        {
          "internalType": "int96",
          "name": "flowRateto",
          "type": "int96"
        }
      ],
      "stateMutability": "view",
      "type": "function"
    },
    {
      "inputs": [],
      "name": "NextID",
      "outputs": [
        {
          "internalType": "uint256",
          "name": "",
          "type": "uint256"
        }
      ],
      "stateMutability": "view",
      "type": "function"
    },
    {
      "inputs": [
        {
          "internalType": "uint256",
          "name": "_id",
          "type": "uint256"
        }
      ],
      "name": "acceptRequestAgreement",
      "outputs": [],
      "stateMutability": "nonpayable",
      "type": "function"
    },
    {
      "inputs": [
        {
          "internalType": "uint256",
          "name": "_id",
          "type": "uint256"
        }
      ],
      "name": "activateFlowbyFlowStream",
      "outputs": [],
      "stateMutability": "nonpayable",
      "type": "function"
    },
    {
      "inputs": [
        {
          "internalType": "contract ISuperToken",
          "name": "",
          "type": "address"
        },
        {
          "internalType": "address",
          "name": "",
          "type": "address"
        },
        {
          "internalType": "bytes32",
          "name": "",
          "type": "bytes32"
        },
        {
          "internalType": "bytes",
          "name": "",
          "type": "bytes"
        },
        {
          "internalType": "bytes",
          "name": "",
          "type": "bytes"
        },
        {
          "internalType": "bytes",
          "name": "",
          "type": "bytes"
        }
      ],
      "name": "afterAgreementCreated",
      "outputs": [
        {
          "internalType": "bytes",
          "name": "",
          "type": "bytes"
        }
      ],
      "stateMutability": "nonpayable",
      "type": "function"
    },
    {
      "inputs": [
        {
          "internalType": "contract ISuperToken",
          "name": "",
          "type": "address"
        },
        {
          "internalType": "address",
          "name": "",
          "type": "address"
        },
        {
          "internalType": "bytes32",
          "name": "",
          "type": "bytes32"
        },
        {
          "internalType": "bytes",
          "name": "",
          "type": "bytes"
        },
        {
          "internalType": "bytes",
          "name": "",
          "type": "bytes"
        },
        {
          "internalType": "bytes",
          "name": "_ctx",
          "type": "bytes"
        }
      ],
      "name": "afterAgreementTerminated",
      "outputs": [
        {
          "internalType": "bytes",
          "name": "newCtx",
          "type": "bytes"
        }
      ],
      "stateMutability": "nonpayable",
      "type": "function"
    },
    {
      "inputs": [
        {
          "internalType": "contract ISuperToken",
          "name": "",
          "type": "address"
        },
        {
          "internalType": "address",
          "name": "",
          "type": "address"
        },
        {
          "internalType": "bytes32",
          "name": "",
          "type": "bytes32"
        },
        {
          "internalType": "bytes",
          "name": "",
          "type": "bytes"
        },
        {
          "internalType": "bytes",
          "name": "",
          "type": "bytes"
        },
        {
          "internalType": "bytes",
          "name": "",
          "type": "bytes"
        }
      ],
      "name": "afterAgreementUpdated",
      "outputs": [
        {
          "internalType": "bytes",
          "name": "",
          "type": "bytes"
        }
      ],
      "stateMutability": "nonpayable",
      "type": "function"
    },
    {
      "inputs": [
        {
          "internalType": "address",
          "name": "",
          "type": "address"
        },
        {
          "internalType": "address",
          "name": "",
          "type": "address"
        }
      ],
      "name": "approveAddress",
      "outputs": [
        {
          "internalType": "bool",
          "name": "",
          "type": "bool"
        }
      ],
      "stateMutability": "view",
      "type": "function"
    },
    {
      "inputs": [
        {
          "internalType": "address",
          "name": "_addressToApprove",
          "type": "address"
        }
      ],
      "name": "approveAddressToManageStuffs",
      "outputs": [],
      "stateMutability": "nonpayable",
      "type": "function"
    },
    {
      "inputs": [
        {
          "internalType": "contract ISuperToken",
          "name": "",
          "type": "address"
        },
        {
          "internalType": "address",
          "name": "",
          "type": "address"
        },
        {
          "internalType": "bytes32",
          "name": "",
          "type": "bytes32"
        },
        {
          "internalType": "bytes",
          "name": "",
          "type": "bytes"
        },
        {
          "internalType": "bytes",
          "name": "",
          "type": "bytes"
        }
      ],
      "name": "beforeAgreementCreated",
      "outputs": [
        {
          "internalType": "bytes",
          "name": "",
          "type": "bytes"
        }
      ],
      "stateMutability": "view",
      "type": "function"
    },
    {
      "inputs": [
        {
          "internalType": "contract ISuperToken",
          "name": "",
          "type": "address"
        },
        {
          "internalType": "address",
          "name": "",
          "type": "address"
        },
        {
          "internalType": "bytes32",
          "name": "",
          "type": "bytes32"
        },
        {
          "internalType": "bytes",
          "name": "",
          "type": "bytes"
        },
        {
          "internalType": "bytes",
          "name": "",
          "type": "bytes"
        }
      ],
      "name": "beforeAgreementTerminated",
      "outputs": [
        {
          "internalType": "bytes",
          "name": "",
          "type": "bytes"
        }
      ],
      "stateMutability": "view",
      "type": "function"
    },
    {
      "inputs": [
        {
          "internalType": "contract ISuperToken",
          "name": "",
          "type": "address"
        },
        {
          "internalType": "address",
          "name": "",
          "type": "address"
        },
        {
          "internalType": "bytes32",
          "name": "",
          "type": "bytes32"
        },
        {
          "internalType": "bytes",
          "name": "",
          "type": "bytes"
        },
        {
          "internalType": "bytes",
          "name": "",
          "type": "bytes"
        }
      ],
      "name": "beforeAgreementUpdated",
      "outputs": [
        {
          "internalType": "bytes",
          "name": "",
          "type": "bytes"
        }
      ],
      "stateMutability": "view",
      "type": "function"
    },
    {
      "inputs": [
        {
          "internalType": "uint256",
          "name": "_id",
          "type": "uint256"
        }
      ],
      "name": "cancelStreamsbyID",
      "outputs": [],
      "stateMutability": "nonpayable",
      "type": "function"
    },
    {
      "inputs": [],
      "name": "cfaV1Lib",
      "outputs": [
        {
          "internalType": "contract ISuperfluid",
          "name": "host",
          "type": "address"
        },
        {
          "internalType": "contract IConstantFlowAgreementV1",
          "name": "cfa",
          "type": "address"
        }
      ],
      "stateMutability": "view",
      "type": "function"
    },
    {
      "inputs": [
        {
          "internalType": "address",
          "name": "_checker",
          "type": "address"
        },
        {
          "internalType": "address",
          "name": "_receiverFromChecker",
          "type": "address"
        },
        {
          "internalType": "contract ISuperToken",
          "name": "_acceptedToken",
          "type": "address"
        }
      ],
      "name": "getFlowInfo",
      "outputs": [
        {
          "internalType": "uint256",
          "name": "startTime",
          "type": "uint256"
        },
        {
          "internalType": "address",
          "name": "checker",
          "type": "address"
        },
        {
          "internalType": "address",
          "name": "receiver",
          "type": "address"
        },
        {
          "internalType": "int96",
          "name": "flowRate",
          "type": "int96"
        }
      ],
      "stateMutability": "view",
      "type": "function"
    },
    {
      "inputs": [
        {
          "internalType": "address",
          "name": "from",
          "type": "address"
        }
      ],
      "name": "pendingAgreements",
      "outputs": [
        {
          "internalType": "uint256[]",
          "name": "idarray",
          "type": "uint256[]"
        }
      ],
      "stateMutability": "view",
      "type": "function"
    },
    {
      "inputs": [
        {
          "internalType": "address",
          "name": "to",
          "type": "address"
        },
        {
          "internalType": "uint256",
          "name": "amountFrom",
          "type": "uint256"
        },
        {
          "internalType": "uint256",
          "name": "amountTo",
          "type": "uint256"
        },
        {
          "internalType": "address",
          "name": "tokenfromout",
          "type": "address"
        },
        {
          "internalType": "address",
          "name": "tokentoout",
          "type": "address"
        },
        {
          "internalType": "int96",
          "name": "flowRatefrom",
          "type": "int96"
        },
        {
          "internalType": "int96",
          "name": "flowRateto",
          "type": "int96"
        }
      ],
      "name": "requestAgreement",
      "outputs": [],
      "stateMutability": "nonpayable",
      "type": "function"
    },
    {
      "inputs": [
        {
          "internalType": "uint256",
          "name": "_id",
          "type": "uint256"
        }
      ],
      "name": "seeAgreementsById",
      "outputs": [
        {
          "components": [
            {
              "internalType": "address",
              "name": "from",
              "type": "address"
            },
            {
              "internalType": "address",
              "name": "to",
              "type": "address"
            },
            {
              "internalType": "uint256",
              "name": "amountFrom",
              "type": "uint256"
            },
            {
              "internalType": "uint256",
              "name": "amountTo",
              "type": "uint256"
            },
            {
              "internalType": "address",
              "name": "tokenfromout",
              "type": "address"
            },
            {
              "internalType": "address",
              "name": "tokentoout",
              "type": "address"
            },
            {
              "internalType": "int96",
              "name": "flowRatefrom",
              "type": "int96"
            },
            {
              "internalType": "int96",
              "name": "flowRateto",
              "type": "int96"
            }
          ],
          "internalType": "struct AgreementStream.Agreements",
          "name": "",
          "type": "tuple"
        }
      ],
      "stateMutability": "view",
      "type": "function"
    },
    {
      "inputs": [
        {
          "internalType": "address",
          "name": "",
          "type": "address"
        },
        {
          "internalType": "address",
          "name": "",
          "type": "address"
        }
      ],
      "name": "streamApprovalSetup",
      "outputs": [
        {
          "internalType": "uint256",
          "name": "",
          "type": "uint256"
        }
      ],
      "stateMutability": "view",
      "type": "function"
    }
  ],
  "bytecode": {
    "object": "0x608060405260016002553480156200001657600080fd5b50604051620021243803806200212483398101604081905262000039916200019c565b6001600160a01b038116620000525762000052620001c3565b6040805180820182526001600160a01b0383168082529151635b69006f60e11b81527fa9214cc96615e0085d3bb077758db69497dc2dce3b2b1e97bc93c3d18d83efd360048201529091602083019163b6d200de9060240160206040518083038186803b158015620000c357600080fd5b505afa158015620000d8573d6000803e3d6000fd5b505050506040513d601f19601f82011682018060405250810190620000fe91906200019c565b6001600160a01b039081169091528151600080549183166001600160a01b03199283161790556020909201516001805491831691909316179091556040516315a722b960e31b8152641f00000001600482018190529183169063ad3915c890602401600060405180830381600087803b1580156200017b57600080fd5b505af115801562000190573d6000803e3d6000fd5b505050505050620001f2565b600060208284031215620001af57600080fd5b8151620001bc81620001d9565b9392505050565b634e487b7160e01b600052600160045260246000fd5b6001600160a01b0381168114620001ef57600080fd5b50565b611f2280620002026000396000f3fe608060405234801561001057600080fd5b506004361061012c5760003560e01c806353c11f99116100ad578063884d1f4011610071578063884d1f4014610319578063c060ae1f1461032c578063ca77325f146103ac578063d86ed3e5146103bf578063f0c25f23146103d257600080fd5b806353c11f991461028657806355586a311461029957806358a86beb146102d35780635f9e7d77146102f35780637ced6aa41461030657600080fd5b806330d9c915116100f457806330d9c915146101ef578063328f9f6614610202578063371e050e146102155780634cc7c5ff146102535780634e36f35d1461026657600080fd5b80630fad9eb9146101315780631e1120ff14610146578063215eed0214610162578063230dbd29146101895780632860fd93146101a9575b600080fd5b61014461013f366004611b7e565b6103fd565b005b61014f60025481565b6040519081526020015b60405180910390f35b61014f7fa9214cc96615e0085d3bb077758db69497dc2dce3b2b1e97bc93c3d18d83efd381565b61019c610197366004611ab3565b610556565b6040516101599190611cac565b6101bc6101b7366004611898565b6105b8565b60405161015994939291909384526001600160a01b03928316602085015291166040830152600b0b606082015260800190565b61019c6101fd366004611a14565b610685565b610144610210366004611b7e565b6106e8565b61024361022336600461185f565b600560209081526000928352604080842090915290825290205460ff1681565b6040519015158152602001610159565b610144610261366004611b7e565b610a4f565b61027961027436600461183b565b610d80565b6040516101599190611c68565b61019c610294366004611ab3565b610dec565b6000546001546102b3916001600160a01b03908116911682565b604080516001600160a01b03938416815292909116602083015201610159565b6102e66102e1366004611b7e565b610e7c565b6040516101599190611d98565b61019c610301366004611a14565b61100c565b6101446103143660046118e3565b611073565b61019c610327366004611a14565b611350565b61039861033a366004611b7e565b600360208190526000918252604090912080546001820154600283015493830154600484015460058501546006909501546001600160a01b0394851696938516959394929391831692821691600160a01b9004600b90810b91900b88565b604051610159989796959493929190611c1a565b6101446103ba36600461183b565b6113b3565b61019c6103cd366004611ab3565b611412565b61014f6103e036600461185f565b600660209081526000928352604080842090915290825290205481565b80806104245760405162461bcd60e51b815260040161041b90611d69565b60405180910390fd5b6002548111156104465760405162461bcd60e51b815260040161041b90611d69565b6000818152600360205260409020546001600160a01b031615158061048457506000818152600360205260409020600101546001600160a01b031615155b806104a057506000818152600360208190526040909120015415155b806104bb575060008181526003602052604090206002015415155b6104c457600080fd5b60008281526003602052604090205482906001600160a01b031633148061050457506000818152600360205260409020600101546001600160a01b031633145b6105475760405162461bcd60e51b8152602060048201526014602482015273139bc81c195b991a5b99c81859dc99595b595b9d60621b604482015260640161041b565b61055083611474565b50505050565b60405162461bcd60e51b815260206004820152602e60248201527f556e737570706f727465642063616c6c6261636b202d2041667465722041677260448201526d19595b595b9d08155c19185d195960921b606482015260609060840161041b565b60008080806001600160a01b0387161515806105dc57506001600160a01b03861615155b1561067c57600154604051631cd43d1160e31b81526001600160a01b038781166004830152898116602483015288811660448301529091169063e6a1e8889060640160806040518083038186803b15801561063657600080fd5b505afa15801561064a573d6000803e3d6000fd5b505050506040513d601f19601f8201168201806040525081019061066e9190611bb0565b509195508894508793509150505b93509350935093565b60405162461bcd60e51b815260206004820152602f60248201527f556e737570706f727465642063616c6c6261636b202d204265666f726520416760448201526e1c99595b595b9d0810dc99585d1959608a1b606482015260609060840161041b565b80806107065760405162461bcd60e51b815260040161041b90611d69565b6002548111156107285760405162461bcd60e51b815260040161041b90611d69565b6000818152600360205260409020546001600160a01b031615158061076657506000818152600360205260409020600101546001600160a01b031615155b8061078257506000818152600360208190526040909120015415155b8061079d575060008181526003602052604090206002015415155b6107a657600080fd5b60008281526003602052604090205482906001600160a01b031633146108065760405162461bcd60e51b8152602060048201526015602482015274139bdd081c195b991a5b99c81859dc99595b595b9d605a1b604482015260640161041b565b60008381526003602081815260408084209283015483546001600160a01b0390811686526006845282862060019095015416855292909152909120548491146108a15760405162461bcd60e51b815260206004820152602760248201527f5468697320686173206e6f7420626520617070726f76656420666f722074686560448201526608185b5bdd5b9d60ca1b606482015260840161041b565b60018054600086815260036020908152604091829020600481015481549582015460059092015484518085018c905285518082039095018552808601958690526394229ecb60e01b9095526001600160a01b03958616966394229ecb966109209693811695918116941692600160a01b909204600b0b91604401611d2b565b600060405180830381600087803b15801561093a57600080fd5b505af115801561094e573d6000803e3d6000fd5b505050506040513d6000823e601f3d908101601f191682016040526109769190810190611967565b5060018054600086815260036020908152604091829020600581015494810154815460069092015484518085018c905285518082039095018552808601958690526394229ecb60e01b9095526001600160a01b03958616966394229ecb966109f29691811695938116941692600b9290920b9190604401611d2b565b600060405180830381600087803b158015610a0c57600080fd5b505af1158015610a20573d6000803e3d6000fd5b505050506040513d6000823e601f3d908101601f19168201604052610a489190810190611967565b5050505050565b8080610a6d5760405162461bcd60e51b815260040161041b90611d69565b600254811115610a8f5760405162461bcd60e51b815260040161041b90611d69565b6000818152600360205260409020546001600160a01b0316151580610acd57506000818152600360205260409020600101546001600160a01b031615155b80610ae957506000818152600360208190526040909120015415155b80610b04575060008181526003602052604090206002015415155b610b0d57600080fd5b60008281526003602052604090206001015482906001600160a01b0316331480610b6c575060008181526003602090815260408083206001908101546001600160a01b03168452600583528184203385529092529091205460ff161515145b610bb05760405162461bcd60e51b8152602060048201526015602482015274139bdd081c195b991a5b99c81859dc99595b595b9d605a1b604482015260640161041b565b60008381526003602081905260409182902090810154600582015460019092015492516370a0823160e01b81526001600160a01b0393841660048201529092909116906370a082319060240160206040518083038186803b158015610c1457600080fd5b505afa158015610c28573d6000803e3d6000fd5b505050506040513d601f19601f82011682018060405250810190610c4c9190611b97565b11610c5657600080fd5b60008381526003602081815260408084209283015483546001600160a01b0390811686526006845282862060019095015416855292825280842092909255338352600490528120610ca8908590611728565b905080610ce85760405162461bcd60e51b815260206004820152600e60248201526d09cde40ecc2d8d2c840d2dcc8caf60931b604482015260640161041b565b600084815260036020819052604091829020805460018201546002830154938301546004840154600585015460069095015496517f5ae8f5d782d9664730c945d10aba79a6db12043cea519905a9e785c69160f3b797610d72976001600160a01b03968716979587169690959381169390811692600160a01b909104600b90810b92900b90611c1a565b60405180910390a150505050565b6001600160a01b038116600090815260046020908152604091829020805483518184028101840190945280845260609392830182828015610de057602002820191906000526020600020905b815481526020019060010190808311610dcc575b50505050509050919050565b6000546060906001600160a01b03163314610e545760405162461bcd60e51b815260206004820152602260248201527f5265646972656374416c6c3a20737570706f7274206f6e6c79206f6e6520686f6044820152611cdd60f21b606482015260840161041b565b6000610e6283850185611b7e565b9050610e6d81611474565b9b9a5050505050505050505050565b6040805161010081018252600080825260208201819052918101829052606081018290526080810182905260a0810182905260c0810182905260e08101919091528180610edb5760405162461bcd60e51b815260040161041b90611d69565b600254811115610efd5760405162461bcd60e51b815260040161041b90611d69565b6000818152600360205260409020546001600160a01b0316151580610f3b57506000818152600360205260409020600101546001600160a01b031615155b80610f5757506000818152600360208190526040909120015415155b80610f72575060008181526003602052604090206002015415155b610f7b57600080fd5b505060009081526003602081815260409283902083516101008101855281546001600160a01b0390811682526001830154811693820193909352600282015494810194909452918201546060840152600482015481166080840152600582015490811660a0840152600160a01b9004600b90810b810b810b60c0840152600690910154810b810b900b60e082015290565b60405162461bcd60e51b815260206004820152603360248201527f556e737570706f727465642063616c6c6261636b202d20204265666f7265204160448201527219dc99595b595b9d0815195c9b5a5b985d1959606a1b606482015260609060840161041b565b6040516370a0823160e01b815233600482018190529087906001600160a01b038716906370a082319060240160206040518083038186803b1580156110b757600080fd5b505afa1580156110cb573d6000803e3d6000fd5b505050506040513d601f19601f820116820180604052508101906110ef9190611b97565b116110f957600080fd5b6000604051806101000160405280836001600160a01b031681526020018a6001600160a01b03168152602001898152602001888152602001876001600160a01b03168152602001866001600160a01b0316815260200185600b0b815260200184600b0b81525090508060036000600254815260200190815260200160002060008201518160000160006101000a8154816001600160a01b0302191690836001600160a01b0316021790555060208201518160010160006101000a8154816001600160a01b0302191690836001600160a01b03160217905550604082015181600201556060820151816003015560808201518160040160006101000a8154816001600160a01b0302191690836001600160a01b0316021790555060a08201518160050160006101000a8154816001600160a01b0302191690836001600160a01b0316021790555060c08201518160050160146101000a8154816001600160601b030219169083600b0b6001600160601b0316021790555060e08201518160060160006101000a8154816001600160601b030219169083600b0b6001600160601b03160217905550905050600460008a6001600160a01b03166001600160a01b031681526020019081526020016000206002549080600181540180825580915050600190039060005260206000200160009091909190915055600260008154600101919050819055507f4dd9de7f95bc9e4ce96ff27ba0dcf0cbeda22c2e7fa9979172859227f8521c9d828a8a8a8a8a8a8a60405161133d989796959493929190611c1a565b60405180910390a1505050505050505050565b60405162461bcd60e51b815260206004820152602f60248201527f556e737570706f727465642063616c6c6261636b202d204265666f726520416760448201526e1c99595b595b9d081d5c19185d1959608a1b606482015260609060840161041b565b6001600160a01b0381161515806113d357506001600160a01b0381163314155b6113dc57600080fd5b3360009081526005602090815260408083206001600160a01b0394909416835292905220805460ff81161560ff19909116179055565b60405162461bcd60e51b815260206004820152602e60248201527f556e737570706f727465642063616c6c6261636b202d2041667465722041677260448201526d19595b595b9d0810dc99585d195960921b606482015260609060840161041b565b606081806114945760405162461bcd60e51b815260040161041b90611d69565b6002548111156114b65760405162461bcd60e51b815260040161041b90611d69565b6000818152600360205260409020546001600160a01b03161515806114f457506000818152600360205260409020600101546001600160a01b031615155b8061151057506000818152600360208190526040909120015415155b8061152b575060008181526003602052604090206002015415155b61153457600080fd5b60018054600085815260036020908152604080832060048101548154919096015482518085018b90528351808203909501855280840193849052634c8b181f60e01b90935293956001600160a01b0395861695634c8b181f956115a595928216949382169391169190604401611ced565b600060405180830381600087803b1580156115bf57600080fd5b505af11580156115d3573d6000803e3d6000fd5b505050506040513d6000823e601f3d908101601f191682016040526115fb9190810190611967565b600180546000878152600360209081526040808320600581015495810154905482518085018d90528351808203909501855280840193849052634c8b181f60e01b90935296975092956001600160a01b0394851695634c8b181f9561166d959181169491811693921691604401611ced565b600060405180830381600087803b15801561168757600080fd5b505af115801561169b573d6000803e3d6000fd5b505050506040513d6000823e601f3d908101601f191682016040526116c39190810190611967565b600086815260036020908152604080832080546001600160a01b03908116855260068452828520600190920154168452825280832092909255905191925061170f918491849101611cbf565b6040516020818303038152906040529350505050919050565b6000805b82548110156117e6578383828154811061174857611748611e99565b906000526020600020015414156117d4578254839061176990600190611e0f565b8154811061177957611779611e99565b906000526020600020015483828154811061179657611796611e99565b9060005260206000200181905550828054806117b4576117b4611e83565b6001900381819060005260206000200160009055905560019150506117ec565b806117de81611e52565b91505061172c565b50600090505b92915050565b60008083601f84011261180457600080fd5b50813567ffffffffffffffff81111561181c57600080fd5b60208301915083602082850101111561183457600080fd5b9250929050565b60006020828403121561184d57600080fd5b813561185881611ec5565b9392505050565b6000806040838503121561187257600080fd5b823561187d81611ec5565b9150602083013561188d81611ec5565b809150509250929050565b6000806000606084860312156118ad57600080fd5b83356118b881611ec5565b925060208401356118c881611ec5565b915060408401356118d881611ec5565b809150509250925092565b600080600080600080600060e0888a0312156118fe57600080fd5b873561190981611ec5565b96506020880135955060408801359450606088013561192781611ec5565b9350608088013561193781611ec5565b925060a088013561194781611edd565b915060c088013561195781611edd565b8091505092959891949750929550565b60006020828403121561197957600080fd5b815167ffffffffffffffff8082111561199157600080fd5b818401915084601f8301126119a557600080fd5b8151818111156119b7576119b7611eaf565b604051601f8201601f19908116603f011681019083821181831017156119df576119df611eaf565b816040528281528760208487010111156119f857600080fd5b611a09836020830160208801611e26565b979650505050505050565b600080600080600080600060a0888a031215611a2f57600080fd5b8735611a3a81611ec5565b96506020880135611a4a81611ec5565b955060408801359450606088013567ffffffffffffffff80821115611a6e57600080fd5b611a7a8b838c016117f2565b909650945060808a0135915080821115611a9357600080fd5b50611aa08a828b016117f2565b989b979a50959850939692959293505050565b600080600080600080600080600060c08a8c031215611ad157600080fd5b8935611adc81611ec5565b985060208a0135611aec81611ec5565b975060408a0135965060608a013567ffffffffffffffff80821115611b1057600080fd5b611b1c8d838e016117f2565b909850965060808c0135915080821115611b3557600080fd5b611b418d838e016117f2565b909650945060a08c0135915080821115611b5a57600080fd5b50611b678c828d016117f2565b915080935050809150509295985092959850929598565b600060208284031215611b9057600080fd5b5035919050565b600060208284031215611ba957600080fd5b5051919050565b60008060008060808587031215611bc657600080fd5b845193506020850151611bd881611edd565b6040860151606090960151949790965092505050565b60008151808452611c06816020860160208601611e26565b601f01601f19169290920160200192915050565b6001600160a01b039889168152968816602088015260408701959095526060860193909352908516608085015290931660a0830152600b92830b60c083015290910b60e08201526101000190565b6020808252825182820181905260009190848201906040850190845b81811015611ca057835183529284019291840191600101611c84565b50909695505050505050565b6020815260006118586020830184611bee565b604081526000611cd26040830185611bee565b8281036020840152611ce48185611bee565b95945050505050565b6001600160a01b038581168252848116602083015283166040820152608060608201819052600090611d2190830184611bee565b9695505050505050565b6001600160a01b038681168252858116602083015284166040820152600b83900b606082015260a060808201819052600090611a0990830184611bee565b60208082526015908201527409eeae840decc40e4c2dcceca40928840d2dcc8caf605b1b604082015260600190565b60006101008201905060018060a01b0380845116835280602085015116602084015260408401516040840152606084015160608401528060808501511660808401528060a08501511660a08401525060c0830151600b0b60c083015260e0830151611e0860e0840182600b0b9052565b5092915050565b600082821015611e2157611e21611e6d565b500390565b60005b83811015611e41578181015183820152602001611e29565b838111156105505750506000910152565b6000600019821415611e6657611e66611e6d565b5060010190565b634e487b7160e01b600052601160045260246000fd5b634e487b7160e01b600052603160045260246000fd5b634e487b7160e01b600052603260045260246000fd5b634e487b7160e01b600052604160045260246000fd5b6001600160a01b0381168114611eda57600080fd5b50565b80600b0b8114611eda57600080fdfea2646970667358221220a29545ff995eb0e9e2529e7dda9acf1578d093c20acfbce9b2afb50cdb88937864736f6c63430008070033",
    "linkReferences": {}
  }
}